:04000000F5EF03F025
:1000080000C015F0F2A407D00B0ED76EDC0ED66E2A
:100018003AA23A86F2949EA010D00B0ECF6EDC0E58
:10002800CE6E2950010F006E00C029F0040E295C25
:1000380003E3296A3AB23A869E9015C000F011008F
:0A004800210E0D6E0D2EFED71200E2
:100052000F0E0C6E470E0D6E0D2EFED70C2EFCD71A
:0600620000000000120086
:0600680000000000120080
:10006E005EBE02D0819601D081865EBC02D08194A4
:10007E0001D081845EBA02D0819201D081825EB8B5
:10008E0002D0819001D081803AB402D0818801D013
:10009E008198818AE2DF819A5EB602D0819601D084
:1000AE0081865EB402D0819401D081845EB202D08A
:1000BE00819201D081825EB002D0819001D0818088
:1000CE003AB402D0818801D08198818AC6DF819AA4
:0C00DE003AA402D0B7DF01D0B0DF12005E
:0C00EA003A945DC05EF0BEDF3A84120064
:1000F600086A080E0C6E003408360450085ED8B044
:0E01060002D00826D89000360C2EF5D7120035
:100114000B6A0A6A096A086A0E6A033408360450CC
:10012400085E0550D8A0053C095E0650D8A0063CE0
:100134000A5E0750D8A0073C0B5EE86AD8A0010EFF
:100144000E5E0336070E0C6E0334083609360A3683
:100154000B360E36045003A012D0085E0550D8A00A
:10016400053C095E0650D8A0063C0A5E0750D8A09C
:10017400073C0B5EE86AD8A0010E0E5E11D008267B
:100184000550D8B0053C09260650D8B0063C0A26CE
:100194000750D8B0073C0B26E86AD8B0010E0E26EB
:1001A40003360C2ED1D70234083609360A360B36FC
:1001B4000E36045003A012D0085E0550D8A0053CAA
:1001C400095E0650D8A0063C0A5E0750D8A0073C3A
:1001D4000B5EE86AD8A0010E0E5E11D00826055009
:1001E400D8B0053C09260650D8B0063C0A2607506C
:1001F400D8B0073C0B26E86AD8B0010E0E260236AA
:10020400070E0C6E0234083609360A360B360E36E3
:10021400045002A012D0085E0550D8A0053C095E27
:100224000650D8A0063C0A5E0750D8A0073C0B5ED7
:10023400E86AD8A0010E0E5E11D008260550D8B089
:10024400053C09260650D8B0063C0A260750D8B00B
:10025400073C0B26E86AD8B0010E0E2602360C2E97
:10026400D1D70134083609360A360B360E36045017
:1002740002A012D0085E0550D8A0053C095E0650C5
:10028400D8A0063C0A5E0750D8A0073C0B5EE86A7B
:10029400D8A0010E0E5E11D008260550D8B0053C3A
:1002A40009260650D8B0063C0A260750D8B0073CA9
:1002B4000B26E86AD8B0010E0E260136070E0C6E26
:1002C4000134083609360A360B360E36045001A0BE
:1002D40012D0085E0550D8A0053C095E0650D8A08F
:1002E400063C0A5E0750D8A0073C0B5EE86AD8A01B
:1002F400010E0E5E11D008260550D8B0053C092623
:100304000650D8B0063C0A260750D8B0073C0B2646
:10031400E86AD8B0010E0E2601360C2ED1D700346F
:10032400083609360A360B360E36045001A012D0B0
:10033400085E0550D8A0053C095E0650D8A0063CCE
:100344000A5E0750D8A0073C0B5EE86AD8A0010EED
:100354000E5E11D008260550D8B0053C092606507B
:10036400D8B0063C0A260750D8B0073C0B26E86AEA
:10037400D8B0010E0E260036070E0C6E0034083677
:1003840009360A360B360E36045000A012D0085E29
:100394000550D8A0053C095E0650D8A0063C0A5E6C
:1003A4000750D8A0073C0B5EE86AD8A0010E0E5E89
:1003B40011D008260550D8B0053C09260650D8B0FF
:1003C400063C0A260750D8B0073C0B26E86AD8B08A
:1003D400010E0E2600360C2ED1D700B00ED00450DC
:1003E40008260550D8B0053C09260650D8B0063C6E
:0C03F4000A260750D8B0073C0B26120068
:10040000220E0C6E086A096A0A6A0B6A0C06D8B4D6
:100410001FD0D8900B320A3209320832033202322E
:1004200001320032D8A0F2D70C06D8B409D004505B
:1004300008260550092206500A2207500B22EAD747
:10044000045008260550092206500A2207500B22A4
:02045000120098
:10045200086A096A100E0C6E013408360936045017
:10046200085E0550D8A0053C095ED8B007D00450FC
:1004720008260550D8B0053C0926D890003601362A
:060482000C2EEAD7120067
:0C0488000E0E0D6E0D2EFED700001200AF
:100494005A6A030E5A5C0AE25A505824E16E000E5E
:1004A4005920E26E200EE66E5A2AF3D75A50582489
:1004B400E16E000E5920E26EE66A5A065A5058243C
:1004C4005B6E000E59205C6E0A0E046E57C000F07D
:1004D40010DE08C000F0300E00265BC0E1FF5CC0F7
:1004E400E2FF00C0E6FF0A0E046E57C000F001DE12
:1004F40000C057F00050000A01E102D05A06DED7CE
:020504001200E3
:100506000FD0800E576E19D0C00E576E16D0940EAF
:10051600576E13D0D40E576E10D0800E576E0DD076
:100526005750010AEEE05750020AEEE05750030A10
:10053600EEE05750040AEEE0F0D75804006E57502C
:10054600002600C057F000C05EF08EDD3A945B6A6C
:100556005B505924E96E000E5A20EA6EEE520BE00B
:100566005B505924E96E000E5A20EA6EEECF5DF01C
:0A057600B9DD5B2AEDD73A841200CC
:100580003FC057F0410E586E000E596E83DF010ECA
:10059000576E0C0E586E410E596E000E5A6EB3DF38
:0205A000120047
:1005A200939A93989390939293949396819A819825
:1005B20081968194819281904BDD4ADD49DD818271
:1005C2008180818A50DD819A43DD818A4CDD819A66
:1005D2003FDD818A48DD819A3BDD8190818A43DD5E
:1005E200819A36DD818A3FDD819A81928186818A74
:1005F2003ADD819A2DDD81968180818A34DD819A6E
:100602008190818A30DD819A23DD818A2CDD819A75
:100612008180818A28DD819A1BDD8190818A23DD98
:10062200819A8186818481828180818A1CDD819A7E
:060632000FDD3A84120006
:100638000900F5CFE6FF0006FBE10106F9E112002B
:10064800830EC2163FC000F00036009000360090BE
:100658000050C21215DFC282C2A201D0FDD7C4CF9A
:0E06680001F0006AC3500012000E01121200D1
:100676003FC000F040C001F0000E026E036EE80EAF
:10068600046E030E056E000E066E076EB6DEFF0ED6
:10069600046E030E056E000E066E076E38DD00C092
:1006A60053F001C054F002C055F003C056F00A0ED4
:1006B600046E000E056E066E076E53C000F054C041
:1006C60001F055C002F056C003F021DD00C04FF026
:1006D60001C050F002C051F003C052F04FC041F0CB
:1006E60050C042F00A0E046E000E056E066E076ECE
:1006F60053C000F054C001F055C002F056C003F0DC
:1007060006DD08C000F009C001F00AC002F00BC007
:1007160003F000C043F001C044F0000E006E5050DC
:10072600005C02E14F50320802E2838401D08394D8
:10073600000E425C02E1640E415C07E3310E456E39
:10074600300E466E300E476E23D0200E456E0A0ED2
:10075600046E000E056E41C000F042C001F076DE68
:10076600300E0024466E0A0E046E000E056E41C061
:1007760000F042C001F06ADE08C000F009C001F0D6
:10078600300E0024476E4650300A02E1200E466EB7
:100796002E0E486E300E4324496E200E4A6EDF0E32
:1007A6004B6E430E4C6E200E4D6E4E6A020E576E09
:1007B600080E586E450E596E000E5A6EA1DE1200D6
:1007C600480E3B6E060E3C6E3F0E3D6E000E3E6EB4
:1007D600C26A281C006E0050C116070EC012C08ED9
:0407E600C2801200BB
:1007EA00D0EC04F01B0EC16E9280928695809582A1
:1007FA00959483943A903A923C0E266E000E276E98
:10080A00CBDE010E5E6E2EDC1A0E0C6EF80E0D6E2D
:10081A000D2EFED70C2EFCD700000C0E5E6E22DCCD
:10082A00010E576E010E586E160E596E000E5A6E54
:10083A0065DE020E576E010E586E200E596E000EBE
:10084A005A6E5CDE26C03FF027C040F094DEB6DF69
:10085A001B0EC16E840ED56E0B0ED76EDC0ED66ED5
:10086A00B10ECD6E0B0ECF6EDC0ECE6EF28A9D806F
:10087A00F28CF28E83A00AD04E0E0C6EEB0E0D6E29
:10088A000D2EFED70C2EFCD783B03A8083A23FD020
:10089A004E0E0C6EEB0E0D6E0D2EFED70C2EFCD7E7
:1008AA0083A235D03A9083943A723AA205D00A0EBE
:1008BA00266E000E276E04D03C0E266E000E276EA2
:1008CA00010E5E6E37EC00F01A0E0C6EF80E0D6E0D
:1008DA000D2EFED70C2EFCD70000010E576E010E0E
:1008EA00586E2A0E596E000E5A6E08DE020E576EA8
:1008FA00010E586E340E596E000E5A6EFFDD26C078
:10090A003FF027C040F037DE83A201D0FDD73AA0DE
:10091A002ED03AA618D03A96000E006E2750005CE8
:10092A0002E1265000080FE2010E265C006E000E5E
:10093A002758016E00C026F001C027F026C03FF0FC
:10094A0027C040F018DE3F6A7ADE00C03FF001C0DF
:10095A0040F08CDE020E0B6E040E0C6EBA0E0D6E9B
:10096A000D2EFED70C2EFCD70B2EFAD7000082D7FD
:02097A00FFD7A5
:1009A00010EE16F0240E006E010E016E7C0EF66E37
:0E09B000090EF76E000EF86E1CEC03F012003C
:0A097C00436F6E746167656D3A0009
:0609860054656D703A009B
:02098C003C002D
:01098E003038
:01098F000067
:0A099000436F6E746167656D3A00F5
:06099A0054656D703A0087
:020000040030CA
:0E000000000C1F1EFF8381FF0FC00FE00F409A
:00000001FF
